{
  "contractName": "ToDoList",
  "abi": [
    {
      "constant": true,
      "inputs": [],
      "name": "taskCount",
      "outputs": [
        {
          "name": "",
          "type": "uint256"
        }
      ],
      "payable": false,
      "stateMutability": "view",
      "type": "function",
      "signature": "0xb6cb58a5"
    }
  ],
  "bytecode": "0x608060405260008055348015601357600080fd5b50609e806100226000396000f3fe608060405260043610603f576000357c0100000000000000000000000000000000000000000000000000000000900463ffffffff168063b6cb58a5146044575b600080fd5b348015604f57600080fd5b506056606c565b6040518082815260200191505060405180910390f35b6000548156fea165627a7a723058204e372951d00f1b35b9109db67e0f49264f14911324b0000a1ff70e1afc9c80060029",
  "source": "pragma solidity ^0.5.0;\n\ncontract ToDoList {\n    uint256 public taskCount = 0;\n\n}",
  "sourcePath": "/Users/shubhamsonthalia/eth-todo-list/contracts/ToDoList.sol",
  "compiler": {
    "name": "solc",
    "version": "0.5.0+commit.1d4f565a.Emscripten.clang"
  },
  "schemaVersion": "3.0.1",
  "updatedAt": "2022-04-09T05:59:27.355Z",
  "devdoc": {
    "methods": {}
  },
  "userdoc": {
    "methods": {}
  }
}